{
	"data": {
		"bytecode": {
			"linkReferences": {},
			"object": "608060405234801561001057600080fd5b50610752806100206000396000f3fe608060405234801561001057600080fd5b50600436106100415760003560e01c806306a00d43146100465780636651af0e14610064578063ecb6e05514610094575b600080fd5b61004e6100b0565b60405161005b919061047d565b60405180910390f35b61007e6004803603810190610079919061033b565b6101be565b60405161008b919061049f565b60405180910390f35b6100ae60048036038101906100a99190610368565b610203565b005b6060600060e167ffffffffffffffff8111156100cf576100ce61067a565b5b6040519080825280602002602001820160405280156100fd5781602001602082028036833780820191505090505b50905060005b60e18160ff1610156101b65760008160ff1660e181106101265761012561064b565b5b600a91828204019190066003029054906101000a900460e81b828260ff16815181106101555761015461064b565b5b60200260200101907cffffffffffffffffffffffffffffffffffffffffffffffffffffffffff191690817cffffffffffffffffffffffffffffffffffffffffffffffffffffffffff19168152505080806101ae906105f2565b915050610103565b508091505090565b600061012c60178363ffffffff1660e181106101dd576101dc61064b565b5b0154426101ea919061054d565b11156101f957600190506101fe565b600090505b919050565b61020f8260ff166101be565b61024e576040517f08c379a0000000000000000000000000000000000000000000000000000000008152600401610245906104ba565b60405180910390fd5b8060008360ff1660e181106102665761026561064b565b5b600a91828204019190066003026101000a81548162ffffff021916908360e81c02179055504260178360ff1660e181106102a3576102a261064b565b5b01819055503373ffffffffffffffffffffffffffffffffffffffff167f71ba9b6ebc449c861473af37fa185ed08e9cec10ae4765ebe9f487e5210a322b83836040516102f09291906104da565b60405180910390a25050565b60008135905061030b816106d7565b92915050565b600081359050610320816106ee565b92915050565b60008135905061033581610705565b92915050565b600060208284031215610351576103506106a9565b5b600061035f84828501610311565b91505092915050565b6000806040838503121561037f5761037e6106a9565b5b600061038d85828601610326565b925050602061039e858286016102fc565b9150509250929050565b60006103b4838361042d565b60208301905092915050565b60006103cb82610513565b6103d5818561052b565b93506103e083610503565b8060005b838110156104115781516103f888826103a8565b97506104038361051e565b9250506001810190506103e4565b5085935050505092915050565b61042781610581565b82525050565b6104368161058d565b82525050565b6104458161058d565b82525050565b600061045860208361053c565b9150610463826106ae565b602082019050919050565b610477816105e0565b82525050565b6000602082019050818103600083015261049781846103c0565b905092915050565b60006020820190506104b4600083018461041e565b92915050565b600060208201905081810360008301526104d38161044b565b9050919050565b60006040820190506104ef600083018561046e565b6104fc602083018461043c565b9392505050565b6000819050602082019050919050565b600081519050919050565b6000602082019050919050565b600082825260208201905092915050565b600082825260208201905092915050565b6000610558826105b9565b9150610563836105b9565b9250828210156105765761057561061c565b5b828203905092915050565b60008115159050919050565b60007fffffff000000000000000000000000000000000000000000000000000000000082169050919050565b6000819050919050565b600063ffffffff82169050919050565b600060ff82169050919050565b60006105eb826105d3565b9050919050565b60006105fd826105d3565b915060ff8214156106115761061061061c565b5b600182019050919050565b7f4e487b7100000000000000000000000000000000000000000000000000000000600052601160045260246000fd5b7f4e487b7100000000000000000000000000000000000000000000000000000000600052603260045260246000fd5b7f4e487b7100000000000000000000000000000000000000000000000000000000600052604160045260246000fd5b600080fd5b7f43757272656e7420706978656c206f6e2035206d696e20636f6f6c646f776e2e600082015250565b6106e08161058d565b81146106eb57600080fd5b50565b6106f7816105c3565b811461070257600080fd5b50565b61070e816105d3565b811461071957600080fd5b5056fea26469706673582212201e9f74e92635505fd3584a6f08572a5ad2aa551889143ad7d871120dc40ecb2564736f6c63430008070033",
			"opcodes": "PUSH1 0x80 PUSH1 0x40 MSTORE CALLVALUE DUP1 ISZERO PUSH2 0x10 JUMPI PUSH1 0x0 DUP1 REVERT JUMPDEST POP PUSH2 0x752 DUP1 PUSH2 0x20 PUSH1 0x0 CODECOPY PUSH1 0x0 RETURN INVALID PUSH1 0x80 PUSH1 0x40 MSTORE CALLVALUE DUP1 ISZERO PUSH2 0x10 JUMPI PUSH1 0x0 DUP1 REVERT JUMPDEST POP PUSH1 0x4 CALLDATASIZE LT PUSH2 0x41 JUMPI PUSH1 0x0 CALLDATALOAD PUSH1 0xE0 SHR DUP1 PUSH4 0x6A00D43 EQ PUSH2 0x46 JUMPI DUP1 PUSH4 0x6651AF0E EQ PUSH2 0x64 JUMPI DUP1 PUSH4 0xECB6E055 EQ PUSH2 0x94 JUMPI JUMPDEST PUSH1 0x0 DUP1 REVERT JUMPDEST PUSH2 0x4E PUSH2 0xB0 JUMP JUMPDEST PUSH1 0x40 MLOAD PUSH2 0x5B SWAP2 SWAP1 PUSH2 0x47D JUMP JUMPDEST PUSH1 0x40 MLOAD DUP1 SWAP2 SUB SWAP1 RETURN JUMPDEST PUSH2 0x7E PUSH1 0x4 DUP1 CALLDATASIZE SUB DUP2 ADD SWAP1 PUSH2 0x79 SWAP2 SWAP1 PUSH2 0x33B JUMP JUMPDEST PUSH2 0x1BE JUMP JUMPDEST PUSH1 0x40 MLOAD PUSH2 0x8B SWAP2 SWAP1 PUSH2 0x49F JUMP JUMPDEST PUSH1 0x40 MLOAD DUP1 SWAP2 SUB SWAP1 RETURN JUMPDEST PUSH2 0xAE PUSH1 0x4 DUP1 CALLDATASIZE SUB DUP2 ADD SWAP1 PUSH2 0xA9 SWAP2 SWAP1 PUSH2 0x368 JUMP JUMPDEST PUSH2 0x203 JUMP JUMPDEST STOP JUMPDEST PUSH1 0x60 PUSH1 0x0 PUSH1 0xE1 PUSH8 0xFFFFFFFFFFFFFFFF DUP2 GT ISZERO PUSH2 0xCF JUMPI PUSH2 0xCE PUSH2 0x67A JUMP JUMPDEST JUMPDEST PUSH1 0x40 MLOAD SWAP1 DUP1 DUP3 MSTORE DUP1 PUSH1 0x20 MUL PUSH1 0x20 ADD DUP3 ADD PUSH1 0x40 MSTORE DUP1 ISZERO PUSH2 0xFD JUMPI DUP2 PUSH1 0x20 ADD PUSH1 0x20 DUP3 MUL DUP1 CALLDATASIZE DUP4 CALLDATACOPY DUP1 DUP3 ADD SWAP2 POP POP SWAP1 POP JUMPDEST POP SWAP1 POP PUSH1 0x0 JUMPDEST PUSH1 0xE1 DUP2 PUSH1 0xFF AND LT ISZERO PUSH2 0x1B6 JUMPI PUSH1 0x0 DUP2 PUSH1 0xFF AND PUSH1 0xE1 DUP2 LT PUSH2 0x126 JUMPI PUSH2 0x125 PUSH2 0x64B JUMP JUMPDEST JUMPDEST PUSH1 0xA SWAP2 DUP3 DUP3 DIV ADD SWAP2 SWAP1 MOD PUSH1 0x3 MUL SWAP1 SLOAD SWAP1 PUSH2 0x100 EXP SWAP1 DIV PUSH1 0xE8 SHL DUP3 DUP3 PUSH1 0xFF AND DUP2 MLOAD DUP2 LT PUSH2 0x155 JUMPI PUSH2 0x154 PUSH2 0x64B JUMP JUMPDEST JUMPDEST PUSH1 0x20 MUL PUSH1 0x20 ADD ADD SWAP1 PUSH29 0xFFFFFFFFFFFFFFFFFFFFFFFFFFFFFFFFFFFFFFFFFFFFFFFFFFFFFFFFFF NOT AND SWAP1 DUP2 PUSH29 0xFFFFFFFFFFFFFFFFFFFFFFFFFFFFFFFFFFFFFFFFFFFFFFFFFFFFFFFFFF NOT AND DUP2 MSTORE POP POP DUP1 DUP1 PUSH2 0x1AE SWAP1 PUSH2 0x5F2 JUMP JUMPDEST SWAP2 POP POP PUSH2 0x103 JUMP JUMPDEST POP DUP1 SWAP2 POP POP SWAP1 JUMP JUMPDEST PUSH1 0x0 PUSH2 0x12C PUSH1 0x17 DUP4 PUSH4 0xFFFFFFFF AND PUSH1 0xE1 DUP2 LT PUSH2 0x1DD JUMPI PUSH2 0x1DC PUSH2 0x64B JUMP JUMPDEST JUMPDEST ADD SLOAD TIMESTAMP PUSH2 0x1EA SWAP2 SWAP1 PUSH2 0x54D JUMP JUMPDEST GT ISZERO PUSH2 0x1F9 JUMPI PUSH1 0x1 SWAP1 POP PUSH2 0x1FE JUMP JUMPDEST PUSH1 0x0 SWAP1 POP JUMPDEST SWAP2 SWAP1 POP JUMP JUMPDEST PUSH2 0x20F DUP3 PUSH1 0xFF AND PUSH2 0x1BE JUMP JUMPDEST PUSH2 0x24E JUMPI PUSH1 0x40 MLOAD PUSH32 0x8C379A000000000000000000000000000000000000000000000000000000000 DUP2 MSTORE PUSH1 0x4 ADD PUSH2 0x245 SWAP1 PUSH2 0x4BA JUMP JUMPDEST PUSH1 0x40 MLOAD DUP1 SWAP2 SUB SWAP1 REVERT JUMPDEST DUP1 PUSH1 0x0 DUP4 PUSH1 0xFF AND PUSH1 0xE1 DUP2 LT PUSH2 0x266 JUMPI PUSH2 0x265 PUSH2 0x64B JUMP JUMPDEST JUMPDEST PUSH1 0xA SWAP2 DUP3 DUP3 DIV ADD SWAP2 SWAP1 MOD PUSH1 0x3 MUL PUSH2 0x100 EXP DUP2 SLOAD DUP2 PUSH3 0xFFFFFF MUL NOT AND SWAP1 DUP4 PUSH1 0xE8 SHR MUL OR SWAP1 SSTORE POP TIMESTAMP PUSH1 0x17 DUP4 PUSH1 0xFF AND PUSH1 0xE1 DUP2 LT PUSH2 0x2A3 JUMPI PUSH2 0x2A2 PUSH2 0x64B JUMP JUMPDEST JUMPDEST ADD DUP2 SWAP1 SSTORE POP CALLER PUSH20 0xFFFFFFFFFFFFFFFFFFFFFFFFFFFFFFFFFFFFFFFF AND PUSH32 0x71BA9B6EBC449C861473AF37FA185ED08E9CEC10AE4765EBE9F487E5210A322B DUP4 DUP4 PUSH1 0x40 MLOAD PUSH2 0x2F0 SWAP3 SWAP2 SWAP1 PUSH2 0x4DA JUMP JUMPDEST PUSH1 0x40 MLOAD DUP1 SWAP2 SUB SWAP1 LOG2 POP POP JUMP JUMPDEST PUSH1 0x0 DUP2 CALLDATALOAD SWAP1 POP PUSH2 0x30B DUP2 PUSH2 0x6D7 JUMP JUMPDEST SWAP3 SWAP2 POP POP JUMP JUMPDEST PUSH1 0x0 DUP2 CALLDATALOAD SWAP1 POP PUSH2 0x320 DUP2 PUSH2 0x6EE JUMP JUMPDEST SWAP3 SWAP2 POP POP JUMP JUMPDEST PUSH1 0x0 DUP2 CALLDATALOAD SWAP1 POP PUSH2 0x335 DUP2 PUSH2 0x705 JUMP JUMPDEST SWAP3 SWAP2 POP POP JUMP JUMPDEST PUSH1 0x0 PUSH1 0x20 DUP3 DUP5 SUB SLT ISZERO PUSH2 0x351 JUMPI PUSH2 0x350 PUSH2 0x6A9 JUMP JUMPDEST JUMPDEST PUSH1 0x0 PUSH2 0x35F DUP5 DUP3 DUP6 ADD PUSH2 0x311 JUMP JUMPDEST SWAP2 POP POP SWAP3 SWAP2 POP POP JUMP JUMPDEST PUSH1 0x0 DUP1 PUSH1 0x40 DUP4 DUP6 SUB SLT ISZERO PUSH2 0x37F JUMPI PUSH2 0x37E PUSH2 0x6A9 JUMP JUMPDEST JUMPDEST PUSH1 0x0 PUSH2 0x38D DUP6 DUP3 DUP7 ADD PUSH2 0x326 JUMP JUMPDEST SWAP3 POP POP PUSH1 0x20 PUSH2 0x39E DUP6 DUP3 DUP7 ADD PUSH2 0x2FC JUMP JUMPDEST SWAP2 POP POP SWAP3 POP SWAP3 SWAP1 POP JUMP JUMPDEST PUSH1 0x0 PUSH2 0x3B4 DUP4 DUP4 PUSH2 0x42D JUMP JUMPDEST PUSH1 0x20 DUP4 ADD SWAP1 POP SWAP3 SWAP2 POP POP JUMP JUMPDEST PUSH1 0x0 PUSH2 0x3CB DUP3 PUSH2 0x513 JUMP JUMPDEST PUSH2 0x3D5 DUP2 DUP6 PUSH2 0x52B JUMP JUMPDEST SWAP4 POP PUSH2 0x3E0 DUP4 PUSH2 0x503 JUMP JUMPDEST DUP1 PUSH1 0x0 JUMPDEST DUP4 DUP2 LT ISZERO PUSH2 0x411 JUMPI DUP2 MLOAD PUSH2 0x3F8 DUP9 DUP3 PUSH2 0x3A8 JUMP JUMPDEST SWAP8 POP PUSH2 0x403 DUP4 PUSH2 0x51E JUMP JUMPDEST SWAP3 POP POP PUSH1 0x1 DUP2 ADD SWAP1 POP PUSH2 0x3E4 JUMP JUMPDEST POP DUP6 SWAP4 POP POP POP POP SWAP3 SWAP2 POP POP JUMP JUMPDEST PUSH2 0x427 DUP2 PUSH2 0x581 JUMP JUMPDEST DUP3 MSTORE POP POP JUMP JUMPDEST PUSH2 0x436 DUP2 PUSH2 0x58D JUMP JUMPDEST DUP3 MSTORE POP POP JUMP JUMPDEST PUSH2 0x445 DUP2 PUSH2 0x58D JUMP JUMPDEST DUP3 MSTORE POP POP JUMP JUMPDEST PUSH1 0x0 PUSH2 0x458 PUSH1 0x20 DUP4 PUSH2 0x53C JUMP JUMPDEST SWAP2 POP PUSH2 0x463 DUP3 PUSH2 0x6AE JUMP JUMPDEST PUSH1 0x20 DUP3 ADD SWAP1 POP SWAP2 SWAP1 POP JUMP JUMPDEST PUSH2 0x477 DUP2 PUSH2 0x5E0 JUMP JUMPDEST DUP3 MSTORE POP POP JUMP JUMPDEST PUSH1 0x0 PUSH1 0x20 DUP3 ADD SWAP1 POP DUP2 DUP2 SUB PUSH1 0x0 DUP4 ADD MSTORE PUSH2 0x497 DUP2 DUP5 PUSH2 0x3C0 JUMP JUMPDEST SWAP1 POP SWAP3 SWAP2 POP POP JUMP JUMPDEST PUSH1 0x0 PUSH1 0x20 DUP3 ADD SWAP1 POP PUSH2 0x4B4 PUSH1 0x0 DUP4 ADD DUP5 PUSH2 0x41E JUMP JUMPDEST SWAP3 SWAP2 POP POP JUMP JUMPDEST PUSH1 0x0 PUSH1 0x20 DUP3 ADD SWAP1 POP DUP2 DUP2 SUB PUSH1 0x0 DUP4 ADD MSTORE PUSH2 0x4D3 DUP2 PUSH2 0x44B JUMP JUMPDEST SWAP1 POP SWAP2 SWAP1 POP JUMP JUMPDEST PUSH1 0x0 PUSH1 0x40 DUP3 ADD SWAP1 POP PUSH2 0x4EF PUSH1 0x0 DUP4 ADD DUP6 PUSH2 0x46E JUMP JUMPDEST PUSH2 0x4FC PUSH1 0x20 DUP4 ADD DUP5 PUSH2 0x43C JUMP JUMPDEST SWAP4 SWAP3 POP POP POP JUMP JUMPDEST PUSH1 0x0 DUP2 SWAP1 POP PUSH1 0x20 DUP3 ADD SWAP1 POP SWAP2 SWAP1 POP JUMP JUMPDEST PUSH1 0x0 DUP2 MLOAD SWAP1 POP SWAP2 SWAP1 POP JUMP JUMPDEST PUSH1 0x0 PUSH1 0x20 DUP3 ADD SWAP1 POP SWAP2 SWAP1 POP JUMP JUMPDEST PUSH1 0x0 DUP3 DUP3 MSTORE PUSH1 0x20 DUP3 ADD SWAP1 POP SWAP3 SWAP2 POP POP JUMP JUMPDEST PUSH1 0x0 DUP3 DUP3 MSTORE PUSH1 0x20 DUP3 ADD SWAP1 POP SWAP3 SWAP2 POP POP JUMP JUMPDEST PUSH1 0x0 PUSH2 0x558 DUP3 PUSH2 0x5B9 JUMP JUMPDEST SWAP2 POP PUSH2 0x563 DUP4 PUSH2 0x5B9 JUMP JUMPDEST SWAP3 POP DUP3 DUP3 LT ISZERO PUSH2 0x576 JUMPI PUSH2 0x575 PUSH2 0x61C JUMP JUMPDEST JUMPDEST DUP3 DUP3 SUB SWAP1 POP SWAP3 SWAP2 POP POP JUMP JUMPDEST PUSH1 0x0 DUP2 ISZERO ISZERO SWAP1 POP SWAP2 SWAP1 POP JUMP JUMPDEST PUSH1 0x0 PUSH32 0xFFFFFF0000000000000000000000000000000000000000000000000000000000 DUP3 AND SWAP1 POP SWAP2 SWAP1 POP JUMP JUMPDEST PUSH1 0x0 DUP2 SWAP1 POP SWAP2 SWAP1 POP JUMP JUMPDEST PUSH1 0x0 PUSH4 0xFFFFFFFF DUP3 AND SWAP1 POP SWAP2 SWAP1 POP JUMP JUMPDEST PUSH1 0x0 PUSH1 0xFF DUP3 AND SWAP1 POP SWAP2 SWAP1 POP JUMP JUMPDEST PUSH1 0x0 PUSH2 0x5EB DUP3 PUSH2 0x5D3 JUMP JUMPDEST SWAP1 POP SWAP2 SWAP1 POP JUMP JUMPDEST PUSH1 0x0 PUSH2 0x5FD DUP3 PUSH2 0x5D3 JUMP JUMPDEST SWAP2 POP PUSH1 0xFF DUP3 EQ ISZERO PUSH2 0x611 JUMPI PUSH2 0x610 PUSH2 0x61C JUMP JUMPDEST JUMPDEST PUSH1 0x1 DUP3 ADD SWAP1 POP SWAP2 SWAP1 POP JUMP JUMPDEST PUSH32 0x4E487B7100000000000000000000000000000000000000000000000000000000 PUSH1 0x0 MSTORE PUSH1 0x11 PUSH1 0x4 MSTORE PUSH1 0x24 PUSH1 0x0 REVERT JUMPDEST PUSH32 0x4E487B7100000000000000000000000000000000000000000000000000000000 PUSH1 0x0 MSTORE PUSH1 0x32 PUSH1 0x4 MSTORE PUSH1 0x24 PUSH1 0x0 REVERT JUMPDEST PUSH32 0x4E487B7100000000000000000000000000000000000000000000000000000000 PUSH1 0x0 MSTORE PUSH1 0x41 PUSH1 0x4 MSTORE PUSH1 0x24 PUSH1 0x0 REVERT JUMPDEST PUSH1 0x0 DUP1 REVERT JUMPDEST PUSH32 0x43757272656E7420706978656C206F6E2035206D696E20636F6F6C646F776E2E PUSH1 0x0 DUP3 ADD MSTORE POP JUMP JUMPDEST PUSH2 0x6E0 DUP2 PUSH2 0x58D JUMP JUMPDEST DUP2 EQ PUSH2 0x6EB JUMPI PUSH1 0x0 DUP1 REVERT JUMPDEST POP JUMP JUMPDEST PUSH2 0x6F7 DUP2 PUSH2 0x5C3 JUMP JUMPDEST DUP2 EQ PUSH2 0x702 JUMPI PUSH1 0x0 DUP1 REVERT JUMPDEST POP JUMP JUMPDEST PUSH2 0x70E DUP2 PUSH2 0x5D3 JUMP JUMPDEST DUP2 EQ PUSH2 0x719 JUMPI PUSH1 0x0 DUP1 REVERT JUMPDEST POP JUMP INVALID LOG2 PUSH5 0x6970667358 0x22 SLT KECCAK256 0x1E SWAP16 PUSH21 0xE92635505FD3584A6F08572A5AD2AA551889143AD7 0xD8 PUSH18 0x120DC40ECB2564736F6C6343000807003300 "
		},
		"gasEstimates": {
			"creation": {
				"codeDepositCost": "374800",
				"executionCost": "411",
				"totalCost": "375211"
			},
			"external": {
				"draw(uint8,bytes3)": "infinite",
				"getCanvas()": "infinite",
				"isPaintable(uint32)": "infinite"
			}
		},
		"methodIdentifiers": {
			"draw(uint8,bytes3)": "ecb6e055",
			"getCanvas()": "06a00d43",
			"isPaintable(uint32)": "6651af0e"
		}
	},
	"abi": [
		{
			"anonymous": false,
			"inputs": [
				{
					"indexed": true,
					"internalType": "address",
					"name": "painter",
					"type": "address"
				},
				{
					"indexed": false,
					"internalType": "uint32",
					"name": "index",
					"type": "uint32"
				},
				{
					"indexed": false,
					"internalType": "bytes3",
					"name": "color",
					"type": "bytes3"
				}
			],
			"name": "Draw",
			"type": "event"
		},
		{
			"inputs": [
				{
					"internalType": "uint8",
					"name": "index",
					"type": "uint8"
				},
				{
					"internalType": "bytes3",
					"name": "color",
					"type": "bytes3"
				}
			],
			"name": "draw",
			"outputs": [],
			"stateMutability": "nonpayable",
			"type": "function"
		},
		{
			"inputs": [],
			"name": "getCanvas",
			"outputs": [
				{
					"internalType": "bytes3[]",
					"name": "",
					"type": "bytes3[]"
				}
			],
			"stateMutability": "view",
			"type": "function"
		},
		{
			"inputs": [
				{
					"internalType": "uint32",
					"name": "index",
					"type": "uint32"
				}
			],
			"name": "isPaintable",
			"outputs": [
				{
					"internalType": "bool",
					"name": "",
					"type": "bool"
				}
			],
			"stateMutability": "view",
			"type": "function"
		}
	]
}