{
  "_format": "hh-sol-artifact-1",
  "contractName": "Canvas",
  "sourceName": "contracts/canvas.sol",
  "abi": [
    {
      "inputs": [
        {
          "internalType": "string",
          "name": "error_msg",
          "type": "string"
        }
      ],
      "name": "Failed",
      "type": "error"
    },
    {
      "anonymous": false,
      "inputs": [
        {
          "indexed": true,
          "internalType": "address",
          "name": "painter",
          "type": "address"
        },
        {
          "indexed": true,
          "internalType": "uint32",
          "name": "index",
          "type": "uint32"
        },
        {
          "indexed": false,
          "internalType": "bytes3",
          "name": "color",
          "type": "bytes3"
        }
      ],
      "name": "Draw",
      "type": "event"
    },
    {
      "inputs": [
        {
          "internalType": "uint8",
          "name": "index",
          "type": "uint8"
        },
        {
          "internalType": "bytes3",
          "name": "color",
          "type": "bytes3"
        }
      ],
      "name": "draw",
      "outputs": [],
      "stateMutability": "nonpayable",
      "type": "function"
    },
    {
      "inputs": [],
      "name": "getCanvas",
      "outputs": [
        {
          "internalType": "bytes3[]",
          "name": "",
          "type": "bytes3[]"
        }
      ],
      "stateMutability": "view",
      "type": "function"
    },
    {
      "inputs": [
        {
          "internalType": "uint32",
          "name": "index",
          "type": "uint32"
        }
      ],
      "name": "isPaintable",
      "outputs": [
        {
          "internalType": "bool",
          "name": "",
          "type": "bool"
        }
      ],
      "stateMutability": "view",
      "type": "function"
    }
  ],
  "bytecode": "0x608060405234801561001057600080fd5b5061074b806100206000396000f3fe608060405234801561001057600080fd5b50600436106100415760003560e01c806306a00d43146100465780636651af0e14610064578063ecb6e05514610094575b600080fd5b61004e6100b0565b60405161005b9190610470565b60405180910390f35b61007e6004803603810190610079919061033d565b6101be565b60405161008b9190610492565b60405180910390f35b6100ae60048036038101906100a9919061036a565b610203565b005b6060600060e167ffffffffffffffff8111156100cf576100ce61064d565b5b6040519080825280602002602001820160405280156100fd5781602001602082028036833780820191505090505b50905060005b60e18160ff1610156101b65760e18160ff1660e181106101265761012561061e565b5b600a91828204019190066003029054906101000a900460e81b828260ff16815181106101555761015461061e565b5b60200260200101907cffffffffffffffffffffffffffffffffffffffffffffffffffffffffff191690817cffffffffffffffffffffffffffffffffffffffffffffffffffffffffff19168152505080806101ae906105c5565b915050610103565b508091505090565b600061012c60008363ffffffff1660e181106101dd576101dc61061e565b5b0154426101ea9190610532565b11156101f957600190506101fe565b600090505b919050565b61020f8260ff166101be565b61024e576040517fc65844e8000000000000000000000000000000000000000000000000000000008152600401610245906104c8565b60405180910390fd5b8060e18360ff1660e181106102665761026561061e565b5b600a91828204019190066003026101000a81548162ffffff021916908360e81c02179055504260008360ff1660e181106102a3576102a261061e565b5b01819055508160ff163373ffffffffffffffffffffffffffffffffffffffff167f71ba9b6ebc449c861473af37fa185ed08e9cec10ae4765ebe9f487e5210a322b836040516102f291906104ad565b60405180910390a35050565b60008135905061030d816106d0565b92915050565b600081359050610322816106e7565b92915050565b600081359050610337816106fe565b92915050565b6000602082840312156103535761035261067c565b5b600061036184828501610313565b91505092915050565b600080604083850312156103815761038061067c565b5b600061038f85828601610328565b92505060206103a0858286016102fe565b9150509250929050565b60006103b6838361042f565b60208301905092915050565b60006103cd826104f8565b6103d78185610510565b93506103e2836104e8565b8060005b838110156104135781516103fa88826103aa565b975061040583610503565b9250506001810190506103e6565b5085935050505092915050565b61042981610566565b82525050565b61043881610572565b82525050565b61044781610572565b82525050565b600061045a602483610521565b915061046582610681565b604082019050919050565b6000602082019050818103600083015261048a81846103c2565b905092915050565b60006020820190506104a76000830184610420565b92915050565b60006020820190506104c2600083018461043e565b92915050565b600060208201905081810360008301526104e18161044d565b9050919050565b6000819050602082019050919050565b600081519050919050565b6000602082019050919050565b600082825260208201905092915050565b600082825260208201905092915050565b600061053d8261059e565b91506105488361059e565b92508282101561055b5761055a6105ef565b5b828203905092915050565b60008115159050919050565b60007fffffff000000000000000000000000000000000000000000000000000000000082169050919050565b6000819050919050565b600063ffffffff82169050919050565b600060ff82169050919050565b60006105d0826105b8565b915060ff8214156105e4576105e36105ef565b5b600182019050919050565b7f4e487b7100000000000000000000000000000000000000000000000000000000600052601160045260246000fd5b7f4e487b7100000000000000000000000000000000000000000000000000000000600052603260045260246000fd5b7f4e487b7100000000000000000000000000000000000000000000000000000000600052604160045260246000fd5b600080fd5b7f4561636820706978656c206e656564732035206d696e7574657320636f6f6c6460008201527f6f776e2e00000000000000000000000000000000000000000000000000000000602082015250565b6106d981610572565b81146106e457600080fd5b50565b6106f0816105a8565b81146106fb57600080fd5b50565b610707816105b8565b811461071257600080fd5b5056fea2646970667358221220450699a34df7e4268ac309d50cc247d95118f96fc6478dea008e966d668788b664736f6c63430008070033",
  "linkReferences": {},
  "deployedLinkReferences": {}
}