{
	"data": {
		"bytecode": {
			"linkReferences": {},
			"object": "608060405234801561001057600080fd5b5061052d806100206000396000f3fe608060405234801561001057600080fd5b50600436106100365760003560e01c806306a00d431461003b578063ecb6e05514610059575b600080fd5b610043610075565b604051610050919061033e565b60405180910390f35b610073600480360381019061006e919061025b565b610183565b005b6060600060e167ffffffffffffffff81111561009457610093610495565b5b6040519080825280602002602001820160405280156100c25781602001602082028036833780820191505090505b50905060005b60e18160ff16101561017b5760008160ff1660e181106100eb576100ea610466565b5b600a91828204019190066003029054906101000a900460e81b828260ff168151811061011a57610119610466565b5b60200260200101907cffffffffffffffffffffffffffffffffffffffffffffffffffffffffff191690817cffffffffffffffffffffffffffffffffffffffffffffffffffffffffff19168152505080806101739061040d565b9150506100c8565b508091505090565b8060008360ff1660e1811061019b5761019a610466565b5b600a91828204019190066003026101000a81548162ffffff021916908360e81c02179055504260178360ff1660e181106101d8576101d7610466565b5b01819055503373ffffffffffffffffffffffffffffffffffffffff167f71ba9b6ebc449c861473af37fa185ed08e9cec10ae4765ebe9f487e5210a322b8383604051610225929190610360565b60405180910390a25050565b600081359050610240816104c9565b92915050565b600081359050610255816104e0565b92915050565b60008060408385031215610272576102716104c4565b5b600061028085828601610246565b925050602061029185828601610231565b9150509250929050565b60006102a78383610311565b60208301905092915050565b60006102be82610399565b6102c881856103b1565b93506102d383610389565b8060005b838110156103045781516102eb888261029b565b97506102f6836103a4565b9250506001810190506102d7565b5085935050505092915050565b61031a816103c2565b82525050565b610329816103c2565b82525050565b610338816103fb565b82525050565b6000602082019050818103600083015261035881846102b3565b905092915050565b6000604082019050610375600083018561032f565b6103826020830184610320565b9392505050565b6000819050602082019050919050565b600081519050919050565b6000602082019050919050565b600082825260208201905092915050565b60007fffffff000000000000000000000000000000000000000000000000000000000082169050919050565b600060ff82169050919050565b6000610406826103ee565b9050919050565b6000610418826103ee565b915060ff82141561042c5761042b610437565b5b600182019050919050565b7f4e487b7100000000000000000000000000000000000000000000000000000000600052601160045260246000fd5b7f4e487b7100000000000000000000000000000000000000000000000000000000600052603260045260246000fd5b7f4e487b7100000000000000000000000000000000000000000000000000000000600052604160045260246000fd5b600080fd5b6104d2816103c2565b81146104dd57600080fd5b50565b6104e9816103ee565b81146104f457600080fd5b5056fea2646970667358221220362bd0f2ab3495fc90c7e0b31f43523e1f506beb5958213047ecde295d2a37a464736f6c63430008070033",
			"opcodes": "PUSH1 0x80 PUSH1 0x40 MSTORE CALLVALUE DUP1 ISZERO PUSH2 0x10 JUMPI PUSH1 0x0 DUP1 REVERT JUMPDEST POP PUSH2 0x52D DUP1 PUSH2 0x20 PUSH1 0x0 CODECOPY PUSH1 0x0 RETURN INVALID PUSH1 0x80 PUSH1 0x40 MSTORE CALLVALUE DUP1 ISZERO PUSH2 0x10 JUMPI PUSH1 0x0 DUP1 REVERT JUMPDEST POP PUSH1 0x4 CALLDATASIZE LT PUSH2 0x36 JUMPI PUSH1 0x0 CALLDATALOAD PUSH1 0xE0 SHR DUP1 PUSH4 0x6A00D43 EQ PUSH2 0x3B JUMPI DUP1 PUSH4 0xECB6E055 EQ PUSH2 0x59 JUMPI JUMPDEST PUSH1 0x0 DUP1 REVERT JUMPDEST PUSH2 0x43 PUSH2 0x75 JUMP JUMPDEST PUSH1 0x40 MLOAD PUSH2 0x50 SWAP2 SWAP1 PUSH2 0x33E JUMP JUMPDEST PUSH1 0x40 MLOAD DUP1 SWAP2 SUB SWAP1 RETURN JUMPDEST PUSH2 0x73 PUSH1 0x4 DUP1 CALLDATASIZE SUB DUP2 ADD SWAP1 PUSH2 0x6E SWAP2 SWAP1 PUSH2 0x25B JUMP JUMPDEST PUSH2 0x183 JUMP JUMPDEST STOP JUMPDEST PUSH1 0x60 PUSH1 0x0 PUSH1 0xE1 PUSH8 0xFFFFFFFFFFFFFFFF DUP2 GT ISZERO PUSH2 0x94 JUMPI PUSH2 0x93 PUSH2 0x495 JUMP JUMPDEST JUMPDEST PUSH1 0x40 MLOAD SWAP1 DUP1 DUP3 MSTORE DUP1 PUSH1 0x20 MUL PUSH1 0x20 ADD DUP3 ADD PUSH1 0x40 MSTORE DUP1 ISZERO PUSH2 0xC2 JUMPI DUP2 PUSH1 0x20 ADD PUSH1 0x20 DUP3 MUL DUP1 CALLDATASIZE DUP4 CALLDATACOPY DUP1 DUP3 ADD SWAP2 POP POP SWAP1 POP JUMPDEST POP SWAP1 POP PUSH1 0x0 JUMPDEST PUSH1 0xE1 DUP2 PUSH1 0xFF AND LT ISZERO PUSH2 0x17B JUMPI PUSH1 0x0 DUP2 PUSH1 0xFF AND PUSH1 0xE1 DUP2 LT PUSH2 0xEB JUMPI PUSH2 0xEA PUSH2 0x466 JUMP JUMPDEST JUMPDEST PUSH1 0xA SWAP2 DUP3 DUP3 DIV ADD SWAP2 SWAP1 MOD PUSH1 0x3 MUL SWAP1 SLOAD SWAP1 PUSH2 0x100 EXP SWAP1 DIV PUSH1 0xE8 SHL DUP3 DUP3 PUSH1 0xFF AND DUP2 MLOAD DUP2 LT PUSH2 0x11A JUMPI PUSH2 0x119 PUSH2 0x466 JUMP JUMPDEST JUMPDEST PUSH1 0x20 MUL PUSH1 0x20 ADD ADD SWAP1 PUSH29 0xFFFFFFFFFFFFFFFFFFFFFFFFFFFFFFFFFFFFFFFFFFFFFFFFFFFFFFFFFF NOT AND SWAP1 DUP2 PUSH29 0xFFFFFFFFFFFFFFFFFFFFFFFFFFFFFFFFFFFFFFFFFFFFFFFFFFFFFFFFFF NOT AND DUP2 MSTORE POP POP DUP1 DUP1 PUSH2 0x173 SWAP1 PUSH2 0x40D JUMP JUMPDEST SWAP2 POP POP PUSH2 0xC8 JUMP JUMPDEST POP DUP1 SWAP2 POP POP SWAP1 JUMP JUMPDEST DUP1 PUSH1 0x0 DUP4 PUSH1 0xFF AND PUSH1 0xE1 DUP2 LT PUSH2 0x19B JUMPI PUSH2 0x19A PUSH2 0x466 JUMP JUMPDEST JUMPDEST PUSH1 0xA SWAP2 DUP3 DUP3 DIV ADD SWAP2 SWAP1 MOD PUSH1 0x3 MUL PUSH2 0x100 EXP DUP2 SLOAD DUP2 PUSH3 0xFFFFFF MUL NOT AND SWAP1 DUP4 PUSH1 0xE8 SHR MUL OR SWAP1 SSTORE POP TIMESTAMP PUSH1 0x17 DUP4 PUSH1 0xFF AND PUSH1 0xE1 DUP2 LT PUSH2 0x1D8 JUMPI PUSH2 0x1D7 PUSH2 0x466 JUMP JUMPDEST JUMPDEST ADD DUP2 SWAP1 SSTORE POP CALLER PUSH20 0xFFFFFFFFFFFFFFFFFFFFFFFFFFFFFFFFFFFFFFFF AND PUSH32 0x71BA9B6EBC449C861473AF37FA185ED08E9CEC10AE4765EBE9F487E5210A322B DUP4 DUP4 PUSH1 0x40 MLOAD PUSH2 0x225 SWAP3 SWAP2 SWAP1 PUSH2 0x360 JUMP JUMPDEST PUSH1 0x40 MLOAD DUP1 SWAP2 SUB SWAP1 LOG2 POP POP JUMP JUMPDEST PUSH1 0x0 DUP2 CALLDATALOAD SWAP1 POP PUSH2 0x240 DUP2 PUSH2 0x4C9 JUMP JUMPDEST SWAP3 SWAP2 POP POP JUMP JUMPDEST PUSH1 0x0 DUP2 CALLDATALOAD SWAP1 POP PUSH2 0x255 DUP2 PUSH2 0x4E0 JUMP JUMPDEST SWAP3 SWAP2 POP POP JUMP JUMPDEST PUSH1 0x0 DUP1 PUSH1 0x40 DUP4 DUP6 SUB SLT ISZERO PUSH2 0x272 JUMPI PUSH2 0x271 PUSH2 0x4C4 JUMP JUMPDEST JUMPDEST PUSH1 0x0 PUSH2 0x280 DUP6 DUP3 DUP7 ADD PUSH2 0x246 JUMP JUMPDEST SWAP3 POP POP PUSH1 0x20 PUSH2 0x291 DUP6 DUP3 DUP7 ADD PUSH2 0x231 JUMP JUMPDEST SWAP2 POP POP SWAP3 POP SWAP3 SWAP1 POP JUMP JUMPDEST PUSH1 0x0 PUSH2 0x2A7 DUP4 DUP4 PUSH2 0x311 JUMP JUMPDEST PUSH1 0x20 DUP4 ADD SWAP1 POP SWAP3 SWAP2 POP POP JUMP JUMPDEST PUSH1 0x0 PUSH2 0x2BE DUP3 PUSH2 0x399 JUMP JUMPDEST PUSH2 0x2C8 DUP2 DUP6 PUSH2 0x3B1 JUMP JUMPDEST SWAP4 POP PUSH2 0x2D3 DUP4 PUSH2 0x389 JUMP JUMPDEST DUP1 PUSH1 0x0 JUMPDEST DUP4 DUP2 LT ISZERO PUSH2 0x304 JUMPI DUP2 MLOAD PUSH2 0x2EB DUP9 DUP3 PUSH2 0x29B JUMP JUMPDEST SWAP8 POP PUSH2 0x2F6 DUP4 PUSH2 0x3A4 JUMP JUMPDEST SWAP3 POP POP PUSH1 0x1 DUP2 ADD SWAP1 POP PUSH2 0x2D7 JUMP JUMPDEST POP DUP6 SWAP4 POP POP POP POP SWAP3 SWAP2 POP POP JUMP JUMPDEST PUSH2 0x31A DUP2 PUSH2 0x3C2 JUMP JUMPDEST DUP3 MSTORE POP POP JUMP JUMPDEST PUSH2 0x329 DUP2 PUSH2 0x3C2 JUMP JUMPDEST DUP3 MSTORE POP POP JUMP JUMPDEST PUSH2 0x338 DUP2 PUSH2 0x3FB JUMP JUMPDEST DUP3 MSTORE POP POP JUMP JUMPDEST PUSH1 0x0 PUSH1 0x20 DUP3 ADD SWAP1 POP DUP2 DUP2 SUB PUSH1 0x0 DUP4 ADD MSTORE PUSH2 0x358 DUP2 DUP5 PUSH2 0x2B3 JUMP JUMPDEST SWAP1 POP SWAP3 SWAP2 POP POP JUMP JUMPDEST PUSH1 0x0 PUSH1 0x40 DUP3 ADD SWAP1 POP PUSH2 0x375 PUSH1 0x0 DUP4 ADD DUP6 PUSH2 0x32F JUMP JUMPDEST PUSH2 0x382 PUSH1 0x20 DUP4 ADD DUP5 PUSH2 0x320 JUMP JUMPDEST SWAP4 SWAP3 POP POP POP JUMP JUMPDEST PUSH1 0x0 DUP2 SWAP1 POP PUSH1 0x20 DUP3 ADD SWAP1 POP SWAP2 SWAP1 POP JUMP JUMPDEST PUSH1 0x0 DUP2 MLOAD SWAP1 POP SWAP2 SWAP1 POP JUMP JUMPDEST PUSH1 0x0 PUSH1 0x20 DUP3 ADD SWAP1 POP SWAP2 SWAP1 POP JUMP JUMPDEST PUSH1 0x0 DUP3 DUP3 MSTORE PUSH1 0x20 DUP3 ADD SWAP1 POP SWAP3 SWAP2 POP POP JUMP JUMPDEST PUSH1 0x0 PUSH32 0xFFFFFF0000000000000000000000000000000000000000000000000000000000 DUP3 AND SWAP1 POP SWAP2 SWAP1 POP JUMP JUMPDEST PUSH1 0x0 PUSH1 0xFF DUP3 AND SWAP1 POP SWAP2 SWAP1 POP JUMP JUMPDEST PUSH1 0x0 PUSH2 0x406 DUP3 PUSH2 0x3EE JUMP JUMPDEST SWAP1 POP SWAP2 SWAP1 POP JUMP JUMPDEST PUSH1 0x0 PUSH2 0x418 DUP3 PUSH2 0x3EE JUMP JUMPDEST SWAP2 POP PUSH1 0xFF DUP3 EQ ISZERO PUSH2 0x42C JUMPI PUSH2 0x42B PUSH2 0x437 JUMP JUMPDEST JUMPDEST PUSH1 0x1 DUP3 ADD SWAP1 POP SWAP2 SWAP1 POP JUMP JUMPDEST PUSH32 0x4E487B7100000000000000000000000000000000000000000000000000000000 PUSH1 0x0 MSTORE PUSH1 0x11 PUSH1 0x4 MSTORE PUSH1 0x24 PUSH1 0x0 REVERT JUMPDEST PUSH32 0x4E487B7100000000000000000000000000000000000000000000000000000000 PUSH1 0x0 MSTORE PUSH1 0x32 PUSH1 0x4 MSTORE PUSH1 0x24 PUSH1 0x0 REVERT JUMPDEST PUSH32 0x4E487B7100000000000000000000000000000000000000000000000000000000 PUSH1 0x0 MSTORE PUSH1 0x41 PUSH1 0x4 MSTORE PUSH1 0x24 PUSH1 0x0 REVERT JUMPDEST PUSH1 0x0 DUP1 REVERT JUMPDEST PUSH2 0x4D2 DUP2 PUSH2 0x3C2 JUMP JUMPDEST DUP2 EQ PUSH2 0x4DD JUMPI PUSH1 0x0 DUP1 REVERT JUMPDEST POP JUMP JUMPDEST PUSH2 0x4E9 DUP2 PUSH2 0x3EE JUMP JUMPDEST DUP2 EQ PUSH2 0x4F4 JUMPI PUSH1 0x0 DUP1 REVERT JUMPDEST POP JUMP INVALID LOG2 PUSH5 0x6970667358 0x22 SLT KECCAK256 CALLDATASIZE 0x2B 0xD0 CALLCODE 0xAB CALLVALUE SWAP6 0xFC SWAP1 0xC7 0xE0 0xB3 0x1F NUMBER MSTORE RETURNDATACOPY 0x1F POP PUSH12 0xEB5958213047ECDE295D2A37 LOG4 PUSH5 0x736F6C6343 STOP ADDMOD SMOD STOP CALLER "
		},
		"gasEstimates": {
			"creation": {
				"codeDepositCost": "265000",
				"executionCost": "306",
				"totalCost": "265306"
			},
			"external": {
				"draw(uint8,bytes3)": "infinite",
				"getCanvas()": "infinite"
			}
		},
		"methodIdentifiers": {
			"draw(uint8,bytes3)": "ecb6e055",
			"getCanvas()": "06a00d43"
		}
	},
	"abi": [
		{
			"anonymous": false,
			"inputs": [
				{
					"indexed": true,
					"internalType": "address",
					"name": "painter",
					"type": "address"
				},
				{
					"indexed": false,
					"internalType": "uint32",
					"name": "index",
					"type": "uint32"
				},
				{
					"indexed": false,
					"internalType": "bytes3",
					"name": "color",
					"type": "bytes3"
				}
			],
			"name": "Draw",
			"type": "event"
		},
		{
			"inputs": [
				{
					"internalType": "uint8",
					"name": "index",
					"type": "uint8"
				},
				{
					"internalType": "bytes3",
					"name": "color",
					"type": "bytes3"
				}
			],
			"name": "draw",
			"outputs": [],
			"stateMutability": "nonpayable",
			"type": "function"
		},
		{
			"inputs": [],
			"name": "getCanvas",
			"outputs": [
				{
					"internalType": "bytes3[]",
					"name": "",
					"type": "bytes3[]"
				}
			],
			"stateMutability": "view",
			"type": "function"
		}
	]
}